{
  "_format": "hh-sol-artifact-1",
  "contractName": "Nft",
  "sourceName": "contracts/nft.sol",
  "abi": [
    {
      "inputs": [
        {
          "internalType": "string",
          "name": "name",
          "type": "string"
        },
        {
          "internalType": "string",
          "name": "symbol",
          "type": "string"
        },
        {
          "internalType": "uint256",
          "name": "_maxTokensPerUser",
          "type": "uint256"
        },
        {
          "internalType": "uint256",
          "name": "_totalSupplyOfToken",
          "type": "uint256"
        },
        {
          "internalType": "address",
          "name": "_implementationAddress",
          "type": "address"
        }
      ],
      "stateMutability": "nonpayable",
      "type": "constructor"
    },
    {
      "anonymous": false,
      "inputs": [
        {
          "indexed": true,
          "internalType": "address",
          "name": "owner",
          "type": "address"
        },
        {
          "indexed": true,
          "internalType": "address",
          "name": "approved",
          "type": "address"
        },
        {
          "indexed": true,
          "internalType": "uint256",
          "name": "tokenId",
          "type": "uint256"
        }
      ],
      "name": "Approval",
      "type": "event"
    },
    {
      "anonymous": false,
      "inputs": [
        {
          "indexed": true,
          "internalType": "address",
          "name": "owner",
          "type": "address"
        },
        {
          "indexed": true,
          "internalType": "address",
          "name": "operator",
          "type": "address"
        },
        {
          "indexed": false,
          "internalType": "bool",
          "name": "approved",
          "type": "bool"
        }
      ],
      "name": "ApprovalForAll",
      "type": "event"
    },
    {
      "anonymous": false,
      "inputs": [
        {
          "indexed": true,
          "internalType": "address",
          "name": "previousOwner",
          "type": "address"
        },
        {
          "indexed": true,
          "internalType": "address",
          "name": "newOwner",
          "type": "address"
        }
      ],
      "name": "OwnershipTransferred",
      "type": "event"
    },
    {
      "anonymous": false,
      "inputs": [
        {
          "indexed": true,
          "internalType": "address",
          "name": "from",
          "type": "address"
        },
        {
          "indexed": true,
          "internalType": "address",
          "name": "to",
          "type": "address"
        },
        {
          "indexed": true,
          "internalType": "uint256",
          "name": "tokenId",
          "type": "uint256"
        }
      ],
      "name": "Transfer",
      "type": "event"
    },
    {
      "inputs": [],
      "name": "_tokenIdTracker",
      "outputs": [
        {
          "internalType": "uint256",
          "name": "",
          "type": "uint256"
        }
      ],
      "stateMutability": "view",
      "type": "function"
    },
    {
      "inputs": [
        {
          "internalType": "address",
          "name": "",
          "type": "address"
        }
      ],
      "name": "allowMint",
      "outputs": [
        {
          "internalType": "bool",
          "name": "",
          "type": "bool"
        }
      ],
      "stateMutability": "view",
      "type": "function"
    },
    {
      "inputs": [
        {
          "internalType": "address",
          "name": "to",
          "type": "address"
        },
        {
          "internalType": "uint256",
          "name": "tokenId",
          "type": "uint256"
        }
      ],
      "name": "approve",
      "outputs": [],
      "stateMutability": "nonpayable",
      "type": "function"
    },
    {
      "inputs": [
        {
          "internalType": "address",
          "name": "owner",
          "type": "address"
        }
      ],
      "name": "balanceOf",
      "outputs": [
        {
          "internalType": "uint256",
          "name": "",
          "type": "uint256"
        }
      ],
      "stateMutability": "view",
      "type": "function"
    },
    {
      "inputs": [
        {
          "internalType": "uint256",
          "name": "tokenId",
          "type": "uint256"
        }
      ],
      "name": "getApproved",
      "outputs": [
        {
          "internalType": "address",
          "name": "",
          "type": "address"
        }
      ],
      "stateMutability": "view",
      "type": "function"
    },
    {
      "inputs": [],
      "name": "implementationAddress",
      "outputs": [
        {
          "internalType": "address",
          "name": "",
          "type": "address"
        }
      ],
      "stateMutability": "view",
      "type": "function"
    },
    {
      "inputs": [
        {
          "internalType": "address",
          "name": "",
          "type": "address"
        }
      ],
      "name": "isAdmin",
      "outputs": [
        {
          "internalType": "bool",
          "name": "",
          "type": "bool"
        }
      ],
      "stateMutability": "view",
      "type": "function"
    },
    {
      "inputs": [
        {
          "internalType": "address",
          "name": "owner",
          "type": "address"
        },
        {
          "internalType": "address",
          "name": "operator",
          "type": "address"
        }
      ],
      "name": "isApprovedForAll",
      "outputs": [
        {
          "internalType": "bool",
          "name": "",
          "type": "bool"
        }
      ],
      "stateMutability": "view",
      "type": "function"
    },
    {
      "inputs": [],
      "name": "isMintingOpen",
      "outputs": [
        {
          "internalType": "bool",
          "name": "",
          "type": "bool"
        }
      ],
      "stateMutability": "view",
      "type": "function"
    },
    {
      "inputs": [
        {
          "internalType": "address",
          "name": "_address",
          "type": "address"
        }
      ],
      "name": "makeAddressAdmin",
      "outputs": [],
      "stateMutability": "nonpayable",
      "type": "function"
    },
    {
      "inputs": [],
      "name": "maxTokensPerUser",
      "outputs": [
        {
          "internalType": "uint256",
          "name": "",
          "type": "uint256"
        }
      ],
      "stateMutability": "view",
      "type": "function"
    },
    {
      "inputs": [
        {
          "internalType": "address",
          "name": "_to",
          "type": "address"
        },
        {
          "internalType": "string",
          "name": "_tokenURI",
          "type": "string"
        }
      ],
      "name": "mintNft",
      "outputs": [],
      "stateMutability": "nonpayable",
      "type": "function"
    },
    {
      "inputs": [],
      "name": "name",
      "outputs": [
        {
          "internalType": "string",
          "name": "",
          "type": "string"
        }
      ],
      "stateMutability": "view",
      "type": "function"
    },
    {
      "inputs": [],
      "name": "onlyAllowWhitelist",
      "outputs": [
        {
          "internalType": "bool",
          "name": "",
          "type": "bool"
        }
      ],
      "stateMutability": "view",
      "type": "function"
    },
    {
      "inputs": [],
      "name": "owner",
      "outputs": [
        {
          "internalType": "address",
          "name": "",
          "type": "address"
        }
      ],
      "stateMutability": "view",
      "type": "function"
    },
    {
      "inputs": [
        {
          "internalType": "uint256",
          "name": "tokenId",
          "type": "uint256"
        }
      ],
      "name": "ownerOf",
      "outputs": [
        {
          "internalType": "address",
          "name": "",
          "type": "address"
        }
      ],
      "stateMutability": "view",
      "type": "function"
    },
    {
      "inputs": [
        {
          "internalType": "address",
          "name": "_address",
          "type": "address"
        }
      ],
      "name": "removeAddressFromAdmin",
      "outputs": [],
      "stateMutability": "nonpayable",
      "type": "function"
    },
    {
      "inputs": [
        {
          "internalType": "address",
          "name": "_address",
          "type": "address"
        }
      ],
      "name": "removeWhitelistAddress",
      "outputs": [],
      "stateMutability": "nonpayable",
      "type": "function"
    },
    {
      "inputs": [],
      "name": "renounceOwnership",
      "outputs": [],
      "stateMutability": "nonpayable",
      "type": "function"
    },
    {
      "inputs": [
        {
          "internalType": "address",
          "name": "from",
          "type": "address"
        },
        {
          "internalType": "address",
          "name": "to",
          "type": "address"
        },
        {
          "internalType": "uint256",
          "name": "tokenId",
          "type": "uint256"
        }
      ],
      "name": "safeTransferFrom",
      "outputs": [],
      "stateMutability": "nonpayable",
      "type": "function"
    },
    {
      "inputs": [
        {
          "internalType": "address",
          "name": "from",
          "type": "address"
        },
        {
          "internalType": "address",
          "name": "to",
          "type": "address"
        },
        {
          "internalType": "uint256",
          "name": "tokenId",
          "type": "uint256"
        },
        {
          "internalType": "bytes",
          "name": "data",
          "type": "bytes"
        }
      ],
      "name": "safeTransferFrom",
      "outputs": [],
      "stateMutability": "nonpayable",
      "type": "function"
    },
    {
      "inputs": [
        {
          "internalType": "address",
          "name": "operator",
          "type": "address"
        },
        {
          "internalType": "bool",
          "name": "approved",
          "type": "bool"
        }
      ],
      "name": "setApprovalForAll",
      "outputs": [],
      "stateMutability": "nonpayable",
      "type": "function"
    },
    {
      "inputs": [],
      "name": "setOnlyAllowWhitelist",
      "outputs": [],
      "stateMutability": "nonpayable",
      "type": "function"
    },
    {
      "inputs": [],
      "name": "startMinting",
      "outputs": [],
      "stateMutability": "nonpayable",
      "type": "function"
    },
    {
      "inputs": [],
      "name": "stopMinting",
      "outputs": [],
      "stateMutability": "nonpayable",
      "type": "function"
    },
    {
      "inputs": [
        {
          "internalType": "bytes4",
          "name": "interfaceId",
          "type": "bytes4"
        }
      ],
      "name": "supportsInterface",
      "outputs": [
        {
          "internalType": "bool",
          "name": "",
          "type": "bool"
        }
      ],
      "stateMutability": "view",
      "type": "function"
    },
    {
      "inputs": [],
      "name": "symbol",
      "outputs": [
        {
          "internalType": "string",
          "name": "",
          "type": "string"
        }
      ],
      "stateMutability": "view",
      "type": "function"
    },
    {
      "inputs": [
        {
          "internalType": "uint256",
          "name": "index",
          "type": "uint256"
        }
      ],
      "name": "tokenByIndex",
      "outputs": [
        {
          "internalType": "uint256",
          "name": "",
          "type": "uint256"
        }
      ],
      "stateMutability": "view",
      "type": "function"
    },
    {
      "inputs": [
        {
          "internalType": "address",
          "name": "owner",
          "type": "address"
        },
        {
          "internalType": "uint256",
          "name": "index",
          "type": "uint256"
        }
      ],
      "name": "tokenOfOwnerByIndex",
      "outputs": [
        {
          "internalType": "uint256",
          "name": "",
          "type": "uint256"
        }
      ],
      "stateMutability": "view",
      "type": "function"
    },
    {
      "inputs": [
        {
          "internalType": "address",
          "name": "",
          "type": "address"
        },
        {
          "internalType": "uint256",
          "name": "",
          "type": "uint256"
        }
      ],
      "name": "tokenOwners",
      "outputs": [
        {
          "internalType": "uint256",
          "name": "",
          "type": "uint256"
        }
      ],
      "stateMutability": "view",
      "type": "function"
    },
    {
      "inputs": [
        {
          "internalType": "uint256",
          "name": "tokenId",
          "type": "uint256"
        }
      ],
      "name": "tokenURI",
      "outputs": [
        {
          "internalType": "string",
          "name": "",
          "type": "string"
        }
      ],
      "stateMutability": "view",
      "type": "function"
    },
    {
      "inputs": [],
      "name": "totalSupply",
      "outputs": [
        {
          "internalType": "uint256",
          "name": "",
          "type": "uint256"
        }
      ],
      "stateMutability": "view",
      "type": "function"
    },
    {
      "inputs": [],
      "name": "totalSupplyOfToken",
      "outputs": [
        {
          "internalType": "uint256",
          "name": "",
          "type": "uint256"
        }
      ],
      "stateMutability": "view",
      "type": "function"
    },
    {
      "inputs": [
        {
          "internalType": "address",
          "name": "from",
          "type": "address"
        },
        {
          "internalType": "address",
          "name": "to",
          "type": "address"
        },
        {
          "internalType": "uint256",
          "name": "tokenId",
          "type": "uint256"
        }
      ],
      "name": "transferFrom",
      "outputs": [],
      "stateMutability": "nonpayable",
      "type": "function"
    },
    {
      "inputs": [
        {
          "internalType": "address",
          "name": "newOwner",
          "type": "address"
        }
      ],
      "name": "transferOwnership",
      "outputs": [],
      "stateMutability": "nonpayable",
      "type": "function"
    },
    {
      "inputs": [],
      "name": "unsetOnlyAllowWhitelist",
      "outputs": [],
      "stateMutability": "nonpayable",
      "type": "function"
    },
    {
      "inputs": [
        {
          "internalType": "address",
          "name": "_implementationAddress",
          "type": "address"
        }
      ],
      "name": "updateImplementationAddress",
      "outputs": [],
      "stateMutability": "nonpayable",
      "type": "function"
    },
    {
      "inputs": [
        {
          "internalType": "uint256",
          "name": "_maxTokensPerUser",
          "type": "uint256"
        }
      ],
      "name": "updateMaxTokensPerUser",
      "outputs": [],
      "stateMutability": "nonpayable",
      "type": "function"
    },
    {
      "inputs": [
        {
          "internalType": "uint256",
          "name": "_totalSupplyOfToken",
          "type": "uint256"
        }
      ],
      "name": "updateTotalSupplyOfToken",
      "outputs": [],
      "stateMutability": "nonpayable",
      "type": "function"
    },
    {
      "inputs": [
        {
          "internalType": "address",
          "name": "_address",
          "type": "address"
        }
      ],
      "name": "whitelistAddress",
      "outputs": [],
      "stateMutability": "nonpayable",
      "type": "function"
    }
  ],
  "bytecode": "0x608060405234620003d557620022cd803803806200001d81620003da565b92833981019060a081830312620003d55780516001600160401b039290838111620003d557816200005091840162000400565b906020908184015190858211620003d5576200006e91850162000400565b906040840151608060608601519501519060018060a01b0396878316809303620003d5578551818111620003bf576000958654916001988984811c94168015620003b4575b88851014620003a0578190601f948581116200034d575b508890858311600114620002e9578a92620002dd575b5050600019600383901b1c191690891b1787555b8051928311620002c95787548881811c91168015620002be575b87821014620002aa5782811162000262575b5085918311600114620001f057928285936012969389989660409a92620001e4575b5050600019600383901b1c191690891b1788555b600a8054336001600160a01b03198216811790925588519b167f8be0079c531659141344cd1fd0a4f28419497f9722a3daafe3b4186f6b6457e0888da387600b5585600c5560ff199889600d5416600d5560135491600e55600f5560018060a81b0319161760135583525281812083858254161790553381522091825416179055611e5a9081620004738239f35b01519050388062000142565b8787528587208893929091601f198416895b8181106200024a57509287959285926012999660409c9b99961062000230575b505050811b01885562000156565b015160001960f88460031b161c1916905538808062000222565b8284015185558b969094019392890192890162000202565b8888528688208380860160051c820192898710620002a0575b0160051c019089905b8281106200029457505062000120565b89815501899062000284565b925081926200027b565b634e487b7160e01b88526022600452602488fd5b90607f16906200010e565b634e487b7160e01b87526041600452602487fd5b015190503880620000e0565b8a8052898b208c94509190601f1984168c5b8c8282106200033657505084116200031c575b505050811b018755620000f4565b015160001960f88460031b161c191690553880806200030e565b8385015186558f97909501949384019301620002fb565b909150898052888a208580850160051c8201928b861062000396575b918d91869594930160051c01915b82811062000387575050620000ca565b8c81558594508d910162000377565b9250819262000369565b634e487b7160e01b89526022600452602489fd5b93607f1693620000b3565b634e487b7160e01b600052604160045260246000fd5b600080fd5b6040519190601f01601f191682016001600160401b03811183821017620003bf57604052565b919080601f84011215620003d55782516001600160401b038111620003bf5760209062000436601f8201601f19168301620003da565b92818452828287010111620003d55760005b8181106200045e57508260009394955001015290565b85810183015184820184015282016200044856fe6080604081815260048036101561001557600080fd5b600092833560e01c90816301ffc9a7146114445750806306fdde03146113bd578063081812fc1461139d578063095ea7b31461122f57806311f87b1914610d2757806318160ddd14610d085780631a20691014610ce4578063232ca17414610cb757806323b872dd14610c9157806324d7806c14610c535780632b84b48314610c1d5780632f745c5914610b715780633e3e0b1214610b3e5780634126d6b414610afa5780634156658514610a4957806342842e0e14610a165780634a7345b4146109e95780634c7b9ef9146109ca5780634f6ccce7146109455780636352211e14610914578063640cff98146108d657806370a08231146108a9578063715018a61461085b5780638b5e51d2146108025780638da5cb5b146107d957806395d89b411461071757806398bcede9146106f85780639a65ea26146106c2578063a22cb465146105f7578063b7ecbaae146105aa578063b88d4fde1461051d578063b97a2319146104f4578063c36c1446146104cd578063c87b56dd146103d1578063d8c43dfb14610395578063e985e9c514610347578063eb5ee83a146102f5578063ee43d43e146102d6578063ef0a14f8146102915763f2fde38b146101db57600080fd5b3461028d57602036600319011261028d576101f461150a565b6101fc61165f565b6001600160a01b0390811691821561023b5750600a80546001600160a01b03198116841790915592519216600080516020611de58339815191528484a3f35b608490602085519162461bcd60e51b8352820152602660248201527f4f776e61626c653a206e6577206f776e657220697320746865207a65726f206160448201526564647265737360d01b6064820152fd5b8280fd5b5050346102d25760203660031901126102d2576102ac61150a565b6102b461165f565b6001600160a01b031682526012602052808220805460ff1916905551f35b5080fd5b5050346102d257816003193601126102d257602090600e549051908152f35b5050346102d25760203660031901126102d25761031061150a565b338352601260205260ff82842054161561028d57601380546001600160a01b0319166001600160a01b039290921691909117905551f35b5050346102d257806003193601126102d25760ff8160209361036761150a565b61036f611525565b6001600160a01b0391821683526005875283832091168252855220549151911615158152f35b5050346102d257816003193601126102d257338252601260205260ff8183205416156102d2576013805460ff60a01b1916600160a01b17905551f35b50903461028d57602091826003193601126104c957356103f86103f382611bb0565b61172e565b8352601482528083209281518094829080546104138161179b565b918285526001918883821691826000146104a2575050600114610464575b50505061046093929161044591038661156c565b81516104508161153b565b52519282849384528301906114ca565b0390f35b8552868520879350859291905b82841061048a5750505082010181610445610460610431565b8054848b018601528995508894909301928101610471565b60ff19168782015293151560051b8601909301935084925061044591506104609050610431565b8380fd5b5050346102d257816003193601126102d25760209060ff60135460a01c1690519015158152f35b5050346102d257816003193601126102d25760135490516001600160a01b039091168152602090f35b503461028d57608036600319011261028d5761053761150a565b90610540611525565b6064359290604435906001600160401b0385116105a657366023860112156105a65761057b61059e948660246105a3983693013591016115aa565b9261058e61058984336118d5565b6117fc565b61059983838361199d565b611ce9565b6118b1565b51f35b8680fd5b5050346102d25760203660031901126102d2576105c561150a565b338352601260205260ff82842054161561028d576001600160a01b031682526011602052808220805460ff1916905551f35b503461028d578160031936011261028d5761061061150a565b602435908115158092036106be576001600160a01b03169133831461067f5750338452600560205282842082855260205282842060ff1981541660ff831617905582519081527f17307eab39ab6107e8899845ad3d59bd9653f200f220920489ca2b5937696c3160203392a351f35b606490602085519162461bcd60e51b8352820152601960248201527822a9219b99189d1030b8383937bb32903a379031b0b63632b960391b6044820152fd5b8480fd5b5050346102d257816003193601126102d257338252601260205260ff8183205416156102d257600160ff19600d541617600d5551f35b5050346102d257816003193601126102d257602090600c549051908152f35b5050346102d257816003193601126102d25780519082600180549061073b8261179b565b808652918181169081156107b15750600114610776575b5050506107648261046094038361156c565b519182916020835260208301906114ca565b80955082526020948583205b82841061079e5750505082610460946107649282010194610752565b8054868501880152928601928101610782565b61046097506107649450602092508693915060ff191682840152151560051b82010194610752565b5050346102d257816003193601126102d257600a5490516001600160a01b039091168152602090f35b5050346102d257806003193601126102d25761081c61150a565b6001600160a01b03168252601060205280822080546024359390841015610858575060209261084a91611647565b91905490519160031b1c8152f35b80fd5b5050346102d257816003193601126102d25761087561165f565b600a80546001600160a01b0319811690915590519082906001600160a01b0316600080516020611de58339815191528284a3f35b5050346102d25760203660031901126102d2576020906108cf6108ca61150a565b6116b7565b9051908152f35b5050346102d25760203660031901126102d25760209160ff9082906001600160a01b0361090161150a565b1681526011855220541690519015158152f35b509134610858576020366003190112610858575061093460209235611775565b90516001600160a01b039091168152f35b50823461085857602036600319011261085857508035906008548210156109725760208361084a84611616565b608490602084519162461bcd60e51b8352820152602c60248201527f455243373231456e756d657261626c653a20676c6f62616c20696e646578206f60448201526b7574206f6620626f756e647360a01b6064820152fd5b5050346102d257816003193601126102d257602090600f549051908152f35b503461028d57602036600319011261028d57338352601260205260ff82842054161561028d5735600e5551f35b5050346102d2576105a361059e610a2c366115e1565b90855192610a398461153b565b87845261058e61058984336118d5565b503461028d57602036600319011261028d57610a6361150a565b90338452601260205260ff8385205416156104c95760ff60135460a01c1615610aa857506001600160a01b031682526011602052808220805460ff1916600117905551f35b608490602084519162461bcd60e51b8352820152602660248201527f436f6e747261637420646f6573206e6f7420737570706f72742077686974656c604482015265697374696e6760d01b6064820152fd5b5050346102d25760203660031901126102d257610b1561150a565b610b1d61165f565b6001600160a01b031682526012602052808220805460ff1916600117905551f35b5050346102d257816003193601126102d257338252601260205260ff8183205416156102d25760ff19600d5416600d5551f35b509134610858578160031936011261085857610b8b61150a565b60243590610b98816116b7565b821015610bc6576001600160a01b031682526006602090815283832091835290815290829020548251908152f35b835162461bcd60e51b8152602081870152602b60248201527f455243373231456e756d657261626c653a206f776e657220696e646578206f7560448201526a74206f6620626f756e647360a81b6064820152608490fd5b5050346102d257816003193601126102d257338252601260205260ff8183205416156102d2576013805460ff60a01b1916905551f35b5050346102d25760203660031901126102d25760209160ff9082906001600160a01b03610c7e61150a565b1681526012855220541690519015158152f35b5050346102d2576105a3610ca4366115e1565b91610cb261058984336118d5565b61199d565b503461028d57602036600319011261028d57338352601260205260ff82842054161561028d5735600f5551f35b5050346102d257816003193601126102d25760209060ff600d541690519015158152f35b5050346102d257816003193601126102d2576020906008549051908152f35b503461028d578160031936011261028d57610d4061150a565b602491906001600160401b039083358281116105a657366023820112156105a657610d73903690868187013591016115aa565b601354926001600160a01b039233848616036111ed5760ff600d5416156111b557610d9d816116b7565b600e54111561116857600c549360019586860180961161115657600f548610156111185760a01c60ff166110cf575b84600c55885190610ddc8261153b565b8a8252821694851561108d579081610df88b9796959493611bb0565b15610e0290611d99565b80868d806008549a84825260209b60098d5281832055610e2185611d74565b610e2a886116b7565b84835260068d528183208184528d52858284205585835260078d5281832055610e5285611bb0565b15610e5c90611d99565b83825260038c5280822080548e01905584825260028c5280822080546001600160a01b0319168517905551600080516020611e058339815191529190a4610ea292611bcd565b610eab906118b1565b600c54610eb781611bb0565b156110345789526014845287892091805191821161102257610ed9835461179b565b601f8111610fdc575b508490601f8311600114610f7857601095949392918b9183610f6d575b5050600019600383901b1c191690861b1790555b87525283852090600c5493825493600160401b851015610f5c575050820181556105a39291610f4191611647565b90919082549060031b600019811b9283911b16911916179055565b634e487b7160e01b88526041905286fd5b015190503880610eff565b838b52858b20601f19841696959493889390928d5b898110610fc557508360109910610fac575b505050811b019055610f13565b015160001960f88460031b161c19169055388080610f9f565b8282015184558a9590930192918801918801610f8d565b838b52858b20601f840160051c810191878510611018575b601f0160051c019087905b82811061100d575050610ee2565b8c8155018790610fff565b9091508190610ff4565b634e487b7160e01b8a5260418752878afd5b885162461bcd60e51b8152808801869052602e818a01527f45524337323155524953746f726167653a2055524920736574206f66206e6f6e60448201526d32bc34b9ba32b73a103a37b5b2b760911b6064820152608490fd5b895162461bcd60e51b81526020818a01819052818b01527f4552433732313a206d696e7420746f20746865207a65726f20616464726573736044820152606490fd5b8082168a52601160205260ff898b205416610dcc57885162461bcd60e51b8152602081890152600f818a01526e139bdd081dda1a5d195b1a5cdd1959608a1b6044820152606490fd5b895162461bcd60e51b81526020818a01526019818b01527813585e081d1bdad95b9cc8185b1c9958591e481b5a5b9d1959603a1b6044820152606490fd5b634e487b7160e01b8b5260118852888bfd5b875162461bcd60e51b81526020818801526022818901527f4d617820746f6b656e7320666f72207573657220616c7265616479206d696e74604482015261195960f21b6064820152608490fd5b875162461bcd60e51b81526020818801526013818901527226b4b734ba37339034b9903737ba1037b832b760691b6044820152606490fd5b875162461bcd60e51b81526020818801819052818901527f4e6f7420616c6c6f77656420746f2063616c6c207468652066756e6374696f6e6044820152606490fd5b503461028d578160031936011261028d5761124861150a565b602435916001600160a01b0390818061126086611775565b1693169280841461135057803314908115611331575b50156112c85783865260205283852080546001600160a01b0319168317905561129e83611775565b169251927f8c5be1e5ebec7d5bd14f71427d1e84f3dd0314c0f7b2291e5b200ac8c7c3b9258585a4f35b608490602086519162461bcd60e51b8352820152603d60248201527f4552433732313a20617070726f76652063616c6c6572206973206e6f7420746f60448201527f6b656e206f776e6572206f7220617070726f76656420666f7220616c6c0000006064820152fd5b90508652600560205284862033875260205260ff858720541638611276565b855162461bcd60e51b8152602081840152602160248201527f4552433732313a20617070726f76616c20746f2063757272656e74206f776e656044820152603960f91b6064820152608490fd5b5091346108585760203660031901126108585750610934602092356117d5565b5050346102d257816003193601126102d2578051908280546113de8161179b565b808552906001908181169081156107b15750600114611409575050506107648261046094038361156c565b94508180526020948583205b8284106114315750505082610460946107649282010194610752565b8054868501880152928601928101611415565b9250503461028d57602036600319011261028d573563ffffffff60e01b811680910361028d576020925063780e9d6360e01b8114908115611487575b5015158152f35b6380ac58cd60e01b8114915081156114b9575b81156114a8575b5038611480565b6301ffc9a760e01b149050386114a1565b635b5e139f60e01b8114915061149a565b919082519283825260005b8481106114f6575050826000602080949584010152601f8019910116010190565b6020818301810151848301820152016114d5565b600435906001600160a01b038216820361152057565b600080fd5b602435906001600160a01b038216820361152057565b602081019081106001600160401b0382111761155657604052565b634e487b7160e01b600052604160045260246000fd5b601f909101601f19168101906001600160401b0382119082101761155657604052565b6001600160401b03811161155657601f01601f191660200190565b9291926115b68261158f565b916115c4604051938461156c565b829481845281830111611520578281602093846000960137010152565b6060906003190112611520576001600160a01b0390600435828116810361152057916024359081168103611520579060443590565b60085481101561163157600860005260206000200190600090565b634e487b7160e01b600052603260045260246000fd5b80548210156116315760005260206000200190600090565b600a546001600160a01b0316330361167357565b606460405162461bcd60e51b815260206004820152602060248201527f4f776e61626c653a2063616c6c6572206973206e6f7420746865206f776e65726044820152fd5b6001600160a01b031680156116d757600052600360205260406000205490565b60405162461bcd60e51b815260206004820152602960248201527f4552433732313a2061646472657373207a65726f206973206e6f7420612076616044820152683634b21037bbb732b960b91b6064820152608490fd5b1561173557565b60405162461bcd60e51b8152602060048201526018602482015277115490cdcc8c4e881a5b9d985b1a59081d1bdad95b88125160421b6044820152606490fd5b6000908152600260205260409020546001600160a01b031661179881151561172e565b90565b90600182811c921680156117cb575b60208310146117b557565b634e487b7160e01b600052602260045260246000fd5b91607f16916117aa565b6117e16103f382611bb0565b6000908152600460205260409020546001600160a01b031690565b1561180357565b60405162461bcd60e51b815260206004820152602d60248201527f4552433732313a2063616c6c6572206973206e6f7420746f6b656e206f776e6560448201526c1c881bdc88185c1c1c9bdd9959609a1b6064820152608490fd5b60809060208152603260208201527f4552433732313a207472616e7366657220746f206e6f6e20455243373231526560408201527131b2b4bb32b91034b6b83632b6b2b73a32b960711b60608201520190565b156118b857565b60405162461bcd60e51b8152806118d16004820161185e565b0390fd5b906001600160a01b0380806118e984611775565b1693169183831493841561191c575b508315611906575b50505090565b611912919293506117d5565b1614388080611900565b909350600052600560205260406000208260005260205260ff6040600020541692386118f8565b1561194a57565b60405162461bcd60e51b815260206004820152602560248201527f4552433732313a207472616e736665722066726f6d20696e636f72726563742060448201526437bbb732b960d91b6064820152608490fd5b6119c1916119aa84611775565b6001600160a01b0393848416939185168414611943565b838216938415611b5f57839182611aa65750611a0b926008548760005260096020526040600020556119f287611d74565b828603611a73575b50611a0486611775565b1614611943565b600080516020611e05833981519152600084815260046020526040812060018060a01b031990818154169055838252600360205260408220600019815401905584825260408220600181540190558582526002602052846040832091825416179055604051a4565b611a7c906116b7565b604060008781526006602052818120838252602052888282205588815260076020522055386119fa565b858303611ab8575b50611a0b926119f2565b611ac39192506116b7565b600019810191908211611b4957611a0b9284926000908882526020906007825260409182842054828103611b12575b508a84528383812055868452600681528284209184525281205592611aae565b8785526006825283852083865282528385205488865260068352848620828752835280858720558552600782528385205538611af2565b634e487b7160e01b600052601160045260246000fd5b60405162461bcd60e51b8152602060048201526024808201527f4552433732313a207472616e7366657220746f20746865207a65726f206164646044820152637265737360e01b6064820152608490fd5b6000908152600260205260409020546001600160a01b0316151590565b9192600092909190803b15611cdf57611c1b946040518092630a85bd0160e11b9485835233600484015287602484015260448301526080606483015281878160209a8b9660848301906114ca565b03926001600160a01b03165af1849181611c9f575b50611c8e575050503d600014611c86573d611c4a8161158f565b90611c58604051928361156c565b81528091833d92013e5b80519182611c835760405162461bcd60e51b8152806118d16004820161185e565b01fd5b506060611c62565b6001600160e01b0319161492509050565b9091508581813d8311611cd8575b611cb7818361156c565b810103126106be57516001600160e01b0319811681036106be579038611c30565b503d611cad565b5050915050600190565b9293600093909291803b15611d6957948491611d439660405180948193630a85bd0160e11b9788845233600485015260018060a01b0380921660248501526044840152608060648401528260209b8c9760848301906114ca565b0393165af1849181611c9f5750611c8e575050503d600014611c86573d611c4a8161158f565b505050915050600190565b60085490600160401b82101561155657610f41826001611d979401600855611616565b565b15611da057565b60405162461bcd60e51b815260206004820152601c60248201527b115490cdcc8c4e881d1bdad95b88185b1c9958591e481b5a5b9d195960221b6044820152606490fdfe8be0079c531659141344cd1fd0a4f28419497f9722a3daafe3b4186f6b6457e0ddf252ad1be2c89b69c2b068fc378daa952ba7f163c4a11628f55a4df523b3efa26469706673582212200fc09c9ceec88173f255e9c9571727367f76a252ff4790da8a41e48a08fc6d8b64736f6c63430008100033",
  "linkReferences": {},
  "deployedLinkReferences": {}
}