{
  "_format": "hh-sol-artifact-1",
  "contractName": "Nft",
  "sourceName": "contracts/nft.sol",
  "abi": [
    {
      "inputs": [
        {
          "internalType": "string",
          "name": "name",
          "type": "string"
        },
        {
          "internalType": "string",
          "name": "symbol",
          "type": "string"
        },
        {
          "internalType": "uint256",
          "name": "_maxTokensPerUser",
          "type": "uint256"
        },
        {
          "internalType": "uint256",
          "name": "_totalSupplyOfToken",
          "type": "uint256"
        },
        {
          "internalType": "bool",
          "name": "_isNftTransferable",
          "type": "bool"
        },
        {
          "internalType": "bool",
          "name": "_isNftTotalSupplyUnlimited",
          "type": "bool"
        },
        {
          "internalType": "address",
          "name": "_implementationAddress",
          "type": "address"
        }
      ],
      "stateMutability": "nonpayable",
      "type": "constructor"
    },
    {
      "anonymous": false,
      "inputs": [
        {
          "indexed": true,
          "internalType": "address",
          "name": "owner",
          "type": "address"
        },
        {
          "indexed": true,
          "internalType": "address",
          "name": "approved",
          "type": "address"
        },
        {
          "indexed": true,
          "internalType": "uint256",
          "name": "tokenId",
          "type": "uint256"
        }
      ],
      "name": "Approval",
      "type": "event"
    },
    {
      "anonymous": false,
      "inputs": [
        {
          "indexed": true,
          "internalType": "address",
          "name": "owner",
          "type": "address"
        },
        {
          "indexed": true,
          "internalType": "address",
          "name": "operator",
          "type": "address"
        },
        {
          "indexed": false,
          "internalType": "bool",
          "name": "approved",
          "type": "bool"
        }
      ],
      "name": "ApprovalForAll",
      "type": "event"
    },
    {
      "anonymous": false,
      "inputs": [
        {
          "indexed": true,
          "internalType": "address",
          "name": "previousOwner",
          "type": "address"
        },
        {
          "indexed": true,
          "internalType": "address",
          "name": "newOwner",
          "type": "address"
        }
      ],
      "name": "OwnershipTransferred",
      "type": "event"
    },
    {
      "anonymous": false,
      "inputs": [
        {
          "indexed": true,
          "internalType": "address",
          "name": "from",
          "type": "address"
        },
        {
          "indexed": true,
          "internalType": "address",
          "name": "to",
          "type": "address"
        },
        {
          "indexed": true,
          "internalType": "uint256",
          "name": "tokenId",
          "type": "uint256"
        }
      ],
      "name": "Transfer",
      "type": "event"
    },
    {
      "inputs": [],
      "name": "_tokenIdTracker",
      "outputs": [
        {
          "internalType": "uint256",
          "name": "",
          "type": "uint256"
        }
      ],
      "stateMutability": "view",
      "type": "function"
    },
    {
      "inputs": [
        {
          "internalType": "address",
          "name": "",
          "type": "address"
        }
      ],
      "name": "allowMint",
      "outputs": [
        {
          "internalType": "bool",
          "name": "",
          "type": "bool"
        }
      ],
      "stateMutability": "view",
      "type": "function"
    },
    {
      "inputs": [
        {
          "internalType": "address",
          "name": "to",
          "type": "address"
        },
        {
          "internalType": "uint256",
          "name": "tokenId",
          "type": "uint256"
        }
      ],
      "name": "approve",
      "outputs": [],
      "stateMutability": "nonpayable",
      "type": "function"
    },
    {
      "inputs": [
        {
          "internalType": "address",
          "name": "owner",
          "type": "address"
        }
      ],
      "name": "balanceOf",
      "outputs": [
        {
          "internalType": "uint256",
          "name": "",
          "type": "uint256"
        }
      ],
      "stateMutability": "view",
      "type": "function"
    },
    {
      "inputs": [
        {
          "internalType": "uint256",
          "name": "tokenId",
          "type": "uint256"
        }
      ],
      "name": "getApproved",
      "outputs": [
        {
          "internalType": "address",
          "name": "",
          "type": "address"
        }
      ],
      "stateMutability": "view",
      "type": "function"
    },
    {
      "inputs": [],
      "name": "implementationAddress",
      "outputs": [
        {
          "internalType": "address",
          "name": "",
          "type": "address"
        }
      ],
      "stateMutability": "view",
      "type": "function"
    },
    {
      "inputs": [
        {
          "internalType": "address",
          "name": "",
          "type": "address"
        }
      ],
      "name": "isAdmin",
      "outputs": [
        {
          "internalType": "bool",
          "name": "",
          "type": "bool"
        }
      ],
      "stateMutability": "view",
      "type": "function"
    },
    {
      "inputs": [
        {
          "internalType": "address",
          "name": "owner",
          "type": "address"
        },
        {
          "internalType": "address",
          "name": "operator",
          "type": "address"
        }
      ],
      "name": "isApprovedForAll",
      "outputs": [
        {
          "internalType": "bool",
          "name": "",
          "type": "bool"
        }
      ],
      "stateMutability": "view",
      "type": "function"
    },
    {
      "inputs": [],
      "name": "isMintingOpen",
      "outputs": [
        {
          "internalType": "bool",
          "name": "",
          "type": "bool"
        }
      ],
      "stateMutability": "view",
      "type": "function"
    },
    {
      "inputs": [],
      "name": "isNftTotalSupplyUnlimited",
      "outputs": [
        {
          "internalType": "bool",
          "name": "",
          "type": "bool"
        }
      ],
      "stateMutability": "view",
      "type": "function"
    },
    {
      "inputs": [],
      "name": "isNftTransferable",
      "outputs": [
        {
          "internalType": "bool",
          "name": "",
          "type": "bool"
        }
      ],
      "stateMutability": "view",
      "type": "function"
    },
    {
      "inputs": [
        {
          "internalType": "address",
          "name": "_address",
          "type": "address"
        }
      ],
      "name": "makeAddressAdmin",
      "outputs": [],
      "stateMutability": "nonpayable",
      "type": "function"
    },
    {
      "inputs": [],
      "name": "maxTokensPerUser",
      "outputs": [
        {
          "internalType": "uint256",
          "name": "",
          "type": "uint256"
        }
      ],
      "stateMutability": "view",
      "type": "function"
    },
    {
      "inputs": [
        {
          "internalType": "address",
          "name": "_to",
          "type": "address"
        },
        {
          "internalType": "string",
          "name": "_tokenURI",
          "type": "string"
        }
      ],
      "name": "mintNft",
      "outputs": [],
      "stateMutability": "nonpayable",
      "type": "function"
    },
    {
      "inputs": [],
      "name": "name",
      "outputs": [
        {
          "internalType": "string",
          "name": "",
          "type": "string"
        }
      ],
      "stateMutability": "view",
      "type": "function"
    },
    {
      "inputs": [],
      "name": "onlyAllowWhitelist",
      "outputs": [
        {
          "internalType": "bool",
          "name": "",
          "type": "bool"
        }
      ],
      "stateMutability": "view",
      "type": "function"
    },
    {
      "inputs": [],
      "name": "owner",
      "outputs": [
        {
          "internalType": "address",
          "name": "",
          "type": "address"
        }
      ],
      "stateMutability": "view",
      "type": "function"
    },
    {
      "inputs": [
        {
          "internalType": "uint256",
          "name": "tokenId",
          "type": "uint256"
        }
      ],
      "name": "ownerOf",
      "outputs": [
        {
          "internalType": "address",
          "name": "",
          "type": "address"
        }
      ],
      "stateMutability": "view",
      "type": "function"
    },
    {
      "inputs": [
        {
          "internalType": "address",
          "name": "_address",
          "type": "address"
        }
      ],
      "name": "removeAddressFromAdmin",
      "outputs": [],
      "stateMutability": "nonpayable",
      "type": "function"
    },
    {
      "inputs": [
        {
          "internalType": "address",
          "name": "_address",
          "type": "address"
        }
      ],
      "name": "removeWhitelistAddress",
      "outputs": [],
      "stateMutability": "nonpayable",
      "type": "function"
    },
    {
      "inputs": [],
      "name": "renounceOwnership",
      "outputs": [],
      "stateMutability": "nonpayable",
      "type": "function"
    },
    {
      "inputs": [
        {
          "internalType": "address",
          "name": "from",
          "type": "address"
        },
        {
          "internalType": "address",
          "name": "to",
          "type": "address"
        },
        {
          "internalType": "uint256",
          "name": "tokenId",
          "type": "uint256"
        }
      ],
      "name": "safeTransferFrom",
      "outputs": [],
      "stateMutability": "nonpayable",
      "type": "function"
    },
    {
      "inputs": [
        {
          "internalType": "address",
          "name": "from",
          "type": "address"
        },
        {
          "internalType": "address",
          "name": "to",
          "type": "address"
        },
        {
          "internalType": "uint256",
          "name": "tokenId",
          "type": "uint256"
        },
        {
          "internalType": "bytes",
          "name": "data",
          "type": "bytes"
        }
      ],
      "name": "safeTransferFrom",
      "outputs": [],
      "stateMutability": "nonpayable",
      "type": "function"
    },
    {
      "inputs": [
        {
          "internalType": "address",
          "name": "operator",
          "type": "address"
        },
        {
          "internalType": "bool",
          "name": "approved",
          "type": "bool"
        }
      ],
      "name": "setApprovalForAll",
      "outputs": [],
      "stateMutability": "nonpayable",
      "type": "function"
    },
    {
      "inputs": [],
      "name": "setOnlyAllowWhitelist",
      "outputs": [],
      "stateMutability": "nonpayable",
      "type": "function"
    },
    {
      "inputs": [],
      "name": "startMinting",
      "outputs": [],
      "stateMutability": "nonpayable",
      "type": "function"
    },
    {
      "inputs": [],
      "name": "stopMinting",
      "outputs": [],
      "stateMutability": "nonpayable",
      "type": "function"
    },
    {
      "inputs": [
        {
          "internalType": "bytes4",
          "name": "interfaceId",
          "type": "bytes4"
        }
      ],
      "name": "supportsInterface",
      "outputs": [
        {
          "internalType": "bool",
          "name": "",
          "type": "bool"
        }
      ],
      "stateMutability": "view",
      "type": "function"
    },
    {
      "inputs": [],
      "name": "symbol",
      "outputs": [
        {
          "internalType": "string",
          "name": "",
          "type": "string"
        }
      ],
      "stateMutability": "view",
      "type": "function"
    },
    {
      "inputs": [
        {
          "internalType": "uint256",
          "name": "index",
          "type": "uint256"
        }
      ],
      "name": "tokenByIndex",
      "outputs": [
        {
          "internalType": "uint256",
          "name": "",
          "type": "uint256"
        }
      ],
      "stateMutability": "view",
      "type": "function"
    },
    {
      "inputs": [
        {
          "internalType": "address",
          "name": "owner",
          "type": "address"
        },
        {
          "internalType": "uint256",
          "name": "index",
          "type": "uint256"
        }
      ],
      "name": "tokenOfOwnerByIndex",
      "outputs": [
        {
          "internalType": "uint256",
          "name": "",
          "type": "uint256"
        }
      ],
      "stateMutability": "view",
      "type": "function"
    },
    {
      "inputs": [
        {
          "internalType": "address",
          "name": "",
          "type": "address"
        },
        {
          "internalType": "uint256",
          "name": "",
          "type": "uint256"
        }
      ],
      "name": "tokenOwners",
      "outputs": [
        {
          "internalType": "uint256",
          "name": "",
          "type": "uint256"
        }
      ],
      "stateMutability": "view",
      "type": "function"
    },
    {
      "inputs": [
        {
          "internalType": "uint256",
          "name": "tokenId",
          "type": "uint256"
        }
      ],
      "name": "tokenURI",
      "outputs": [
        {
          "internalType": "string",
          "name": "",
          "type": "string"
        }
      ],
      "stateMutability": "view",
      "type": "function"
    },
    {
      "inputs": [],
      "name": "totalSupply",
      "outputs": [
        {
          "internalType": "uint256",
          "name": "",
          "type": "uint256"
        }
      ],
      "stateMutability": "view",
      "type": "function"
    },
    {
      "inputs": [],
      "name": "totalSupplyOfToken",
      "outputs": [
        {
          "internalType": "uint256",
          "name": "",
          "type": "uint256"
        }
      ],
      "stateMutability": "view",
      "type": "function"
    },
    {
      "inputs": [
        {
          "internalType": "address",
          "name": "from",
          "type": "address"
        },
        {
          "internalType": "address",
          "name": "to",
          "type": "address"
        },
        {
          "internalType": "uint256",
          "name": "tokenId",
          "type": "uint256"
        }
      ],
      "name": "transferFrom",
      "outputs": [],
      "stateMutability": "nonpayable",
      "type": "function"
    },
    {
      "inputs": [
        {
          "internalType": "address",
          "name": "newOwner",
          "type": "address"
        }
      ],
      "name": "transferOwnership",
      "outputs": [],
      "stateMutability": "nonpayable",
      "type": "function"
    },
    {
      "inputs": [],
      "name": "unsetOnlyAllowWhitelist",
      "outputs": [],
      "stateMutability": "nonpayable",
      "type": "function"
    },
    {
      "inputs": [
        {
          "internalType": "address",
          "name": "_implementationAddress",
          "type": "address"
        }
      ],
      "name": "updateImplementationAddress",
      "outputs": [],
      "stateMutability": "nonpayable",
      "type": "function"
    },
    {
      "inputs": [
        {
          "internalType": "uint256",
          "name": "_maxTokensPerUser",
          "type": "uint256"
        }
      ],
      "name": "updateMaxTokensPerUser",
      "outputs": [],
      "stateMutability": "nonpayable",
      "type": "function"
    },
    {
      "inputs": [
        {
          "internalType": "bool",
          "name": "_isNftTransferable",
          "type": "bool"
        }
      ],
      "name": "updateNftTransferability",
      "outputs": [],
      "stateMutability": "nonpayable",
      "type": "function"
    },
    {
      "inputs": [
        {
          "internalType": "uint256",
          "name": "_totalSupplyOfToken",
          "type": "uint256"
        }
      ],
      "name": "updateTotalSupplyOfToken",
      "outputs": [],
      "stateMutability": "nonpayable",
      "type": "function"
    },
    {
      "inputs": [
        {
          "internalType": "address",
          "name": "_address",
          "type": "address"
        }
      ],
      "name": "whitelistAddress",
      "outputs": [],
      "stateMutability": "nonpayable",
      "type": "function"
    }
  ],
  "bytecode": "0x6080604052346200042057620024ad803803806200001d8162000425565b92833981019060e081830312620004205780516001600160401b039290838111620004205781620000509184016200044b565b90602090818401519085821162000420576200006e9185016200044b565b906040840151936060810151946200008960808301620004bd565b9060c06200009a60a08501620004bd565b9301516001600160a01b03988982169491859003620004205787518181116200040a5760009788549160019a8b84811c94168015620003ff575b8a851014620003eb578190601f9485811162000398575b508a908583116001146200032a578c926200031e575b5050600019600383901b1c1916908b1b1789555b80519283116200030a5789548a81811c91168015620002ff575b89821014620002eb579081838594931162000296575b50889183116001146200023257899262000226575b5050600019600383901b1c191690881b1787555b600a8054336001600160a01b0319821681179092556040519a167f8be0079c531659141344cd1fd0a4f28419497f9722a3daafe3b4186f6b6457e0888ca386600b5585600c558360ff1998888a600d541617600d556013549061ffff196015541694600e55600f55600160a81b60019003191617601355151560081b61ff001691151560ff1617176015558252601290526040812082848254161790553381526040902091825416179055611fe19081620004cc8239f35b0151905038806200015a565b8a8a52888a208b94509190601f1984168b5b8b8282106200027f575050841162000265575b505050811b0187556200016e565b015160001960f88460031b161c1916905538808062000257565b8385015186558e9790950194938401930162000244565b909192508a8a52888a208380860160051c8201928b8710620002e1575b9186958e929594930160051c01915b828110620002d257505062000145565b8c81558695508d9101620002c2565b92508192620002b3565b634e487b7160e01b8a52602260045260248afd5b90607f16906200012f565b634e487b7160e01b89526041600452602489fd5b01519050388062000101565b8c80528b8d208e94509190601f1984168e8e5b8282106200037757505084116200035d575b505050811b01895562000115565b015160001960f88460031b161c191690553880806200034f565b91929395968291958786015181550195019301908f95949392918e6200033d565b9091508b80528a8c208580850160051c8201928d8610620003e1575b918f91869594930160051c01915b828110620003d2575050620000eb565b8e81558594508f9101620003c2565b92508192620003b4565b634e487b7160e01b8b52602260045260248bfd5b93607f1693620000d4565b634e487b7160e01b600052604160045260246000fd5b600080fd5b6040519190601f01601f191682016001600160401b038111838210176200040a57604052565b919080601f84011215620004205782516001600160401b0381116200040a5760209062000481601f8201601f1916830162000425565b92818452828287010111620004205760005b818110620004a957508260009394955001015290565b858101830151848201840152820162000493565b51908115158203620004205756fe6080604081815260048036101561001557600080fd5b600092833560e01c90816301ffc9a7146115a05750806306fdde0314611519578063081812fc146114f9578063095ea7b31461139d57806311f87b1914610e3757806318160ddd14610e185780631a20691014610df4578063232ca17414610dc757806323b872dd14610d0d57806324d7806c14610ccf5780632a858df414610cab5780632b84b48314610c755780632f745c5914610bc95780633e3e0b1214610b965780634126d6b414610b525780634156658514610aa157806342842e0e14610a795780634a7345b414610a4c5780634c7b9ef914610a2d5780634f6ccce7146109a85780636352211e14610977578063640cff981461093957806370a082311461090c578063715018a6146108be5780637cb04acc1461087c5780638b5e51d2146108235780638da5cb5b146107fa57806395d89b411461073857806398bcede9146107195780639a65ea26146106e3578063a22cb46514610618578063b7ecbaae146105cb578063b88d4fde14610565578063b97a23191461053c578063c36c144614610515578063c87b56dd14610419578063d8c43dfb146103dd578063e985e9c51461038f578063eb5ee83a1461033d578063ebcb127514610316578063ee43d43e146102f7578063ef0a14f8146102b25763f2fde38b146101fc57600080fd5b346102ae5760203660031901126102ae57610215611666565b61021d6117bb565b6001600160a01b0390811691821561025c5750600a80546001600160a01b03198116841790915592519216600080516020611f4c8339815191528484a3f35b608490602085519162461bcd60e51b8352820152602660248201527f4f776e61626c653a206e6577206f776e657220697320746865207a65726f206160448201526564647265737360d01b6064820152fd5b8280fd5b5050346102f35760203660031901126102f3576102cd611666565b6102d56117bb565b6001600160a01b031682526012602052808220805460ff1916905551f35b5080fd5b5050346102f357816003193601126102f357602090600e549051908152f35b5050346102f357816003193601126102f35760209060ff60155460081c1690519015158152f35b5050346102f35760203660031901126102f357610358611666565b338352601260205260ff8284205416156102ae57601380546001600160a01b0319166001600160a01b039290921691909117905551f35b5050346102f357806003193601126102f35760ff816020936103af611666565b6103b7611681565b6001600160a01b0391821683526005875283832091168252855220549151911615158152f35b5050346102f357816003193601126102f357338252601260205260ff8183205416156102f3576013805460ff60a01b1916600160a01b17905551f35b5090346102ae5760209182600319360112610511573561044061043b82611d44565b61188a565b83526014825280832092815180948290805461045b816118f7565b918285526001918883821691826000146104ea5750506001146104ac575b5050506104a893929161048d9103866116c8565b815161049881611697565b5251928284938452830190611626565b0390f35b8552868520879350859291905b8284106104d2575050508201018161048d6104a8610479565b8054848b0186015289955088949093019281016104b9565b60ff19168782015293151560051b8601909301935084925061048d91506104a89050610479565b8380fd5b5050346102f357816003193601126102f35760209060ff60135460a01c1690519015158152f35b5050346102f357816003193601126102f35760135490516001600160a01b039091168152602090f35b50346102ae5760803660031901126102ae5761057f611666565b610587611681565b906064356001600160401b0381116105c757366023820112156105c7576105c4938160246105ba93369301359101611706565b9160443591611958565b51f35b8580fd5b5050346102f35760203660031901126102f3576105e6611666565b338352601260205260ff8284205416156102ae576001600160a01b031682526011602052808220805460ff1916905551f35b50346102ae57816003193601126102ae57610631611666565b602435908115158092036106df576001600160a01b0316913383146106a05750338452600560205282842082855260205282842060ff1981541660ff831617905582519081527f17307eab39ab6107e8899845ad3d59bd9653f200f220920489ca2b5937696c3160203392a351f35b606490602085519162461bcd60e51b8352820152601960248201527822a9219b99189d1030b8383937bb32903a379031b0b63632b960391b6044820152fd5b8480fd5b5050346102f357816003193601126102f357338252601260205260ff8183205416156102f357600160ff19600d541617600d5551f35b5050346102f357816003193601126102f357602090600c549051908152f35b5050346102f357816003193601126102f35780519082600180549061075c826118f7565b808652918181169081156107d25750600114610797575b505050610785826104a89403836116c8565b51918291602083526020830190611626565b80955082526020948583205b8284106107bf57505050826104a8946107859282010194610773565b80548685018801529286019281016107a3565b6104a897506107859450602092508693915060ff191682840152151560051b82010194610773565b5050346102f357816003193601126102f357600a5490516001600160a01b039091168152602090f35b5050346102f357806003193601126102f35761083d611666565b6001600160a01b03168252601060205280822080546024359390841015610879575060209261086b916117a3565b91905490519160031b1c8152f35b80fd5b50346102ae5760203660031901126102ae57358015158091036102ae57338352601260205260ff8284205416156102ae5760ff80196015541691161760155551f35b5050346102f357816003193601126102f3576108d86117bb565b600a80546001600160a01b0319811690915590519082906001600160a01b0316600080516020611f4c8339815191528284a3f35b5050346102f35760203660031901126102f35760209061093261092d611666565b611813565b9051908152f35b5050346102f35760203660031901126102f35760209160ff9082906001600160a01b03610964611666565b1681526011855220541690519015158152f35b5091346108795760203660031901126108795750610997602092356118d1565b90516001600160a01b039091168152f35b50823461087957602036600319011261087957508035906008548210156109d55760208361086b84611772565b608490602084519162461bcd60e51b8352820152602c60248201527f455243373231456e756d657261626c653a20676c6f62616c20696e646578206f60448201526b7574206f6620626f756e647360a01b6064820152fd5b5050346102f357816003193601126102f357602090600f549051908152f35b50346102ae5760203660031901126102ae57338352601260205260ff8284205416156102ae5735600e5551f35b5050346102f3576105c4610a8c3661173d565b90845192610a9984611697565b868452611958565b50346102ae5760203660031901126102ae57610abb611666565b90338452601260205260ff8385205416156105115760ff60135460a01c1615610b0057506001600160a01b031682526011602052808220805460ff1916600117905551f35b608490602084519162461bcd60e51b8352820152602660248201527f436f6e747261637420646f6573206e6f7420737570706f72742077686974656c604482015265697374696e6760d01b6064820152fd5b5050346102f35760203660031901126102f357610b6d611666565b610b756117bb565b6001600160a01b031682526012602052808220805460ff1916600117905551f35b5050346102f357816003193601126102f357338252601260205260ff8183205416156102f35760ff19600d5416600d5551f35b509134610879578160031936011261087957610be3611666565b60243590610bf081611813565b821015610c1e576001600160a01b031682526006602090815283832091835290815290829020548251908152f35b835162461bcd60e51b8152602081870152602b60248201527f455243373231456e756d657261626c653a206f776e657220696e646578206f7560448201526a74206f6620626f756e647360a81b6064820152608490fd5b5050346102f357816003193601126102f357338252601260205260ff8183205416156102f3576013805460ff60a01b1916905551f35b5050346102f357816003193601126102f35760209060ff6015541690519015158152f35b5050346102f35760203660031901126102f35760209160ff9082906001600160a01b03610cfa611666565b1681526012855220541690519015158152f35b509190346102f357610d1e3661173d565b9194610d2a8333611a46565b15610d805760ff6015541615610d4657506105c4929394611ab4565b606490602085519162461bcd60e51b835282015260146024820152734e4654204e6f6e205472616e7366657261626c6560601b6044820152fd5b608490602085519162461bcd60e51b8352820152602d6024820152600080516020611f2c83398151915260448201526c1c881bdc88185c1c1c9bdd9959609a1b6064820152fd5b50346102ae5760203660031901126102ae57338352601260205260ff8284205416156102ae5735600f5551f35b5050346102f357816003193601126102f35760209060ff600d541690519015158152f35b5050346102f357816003193601126102f3576020906008549051908152f35b50346102ae57816003193601126102ae57610e50611666565b602491906001600160401b03908335828111611399573660238201121561139957610e8390369086818701359101611706565b6013546001600160a01b0393919033858216036113575760ff600d54161561131f57610eae84611813565b600e5411156112d25760ff60155460081c161561127e575b60a01c60ff16611235575b600c54916001948584018094116112235783600c55885190610ef282611697565b8a825285169384156111e157610f0781611d44565b6111a05760085495818c52602096600988528b8d2055610f2682611f08565b8b828c610f3284611813565b9289815260068b528181208482528b522055828d52600788528b8d2055858c52600387528a8c2080549089820180921161118e579183888f8f81600080516020611f6c8339815191529160028f610fa79b99610fac9d9b55878452528082208560018060a01b031982541617905551a4611d61565b611a22565b600c54610fb881611d44565b156111355789526014845287892091805191821161112357610fda83546118f7565b601f81116110dd575b508490601f831160011461107957601095949392918b918361106e575b5050600019600383901b1c191690861b1790555b87525283852090600c5493825493600160401b85101561105d575050820181556105c49291611042916117a3565b90919082549060031b600019811b9283911b16911916179055565b634e487b7160e01b88526041905286fd5b015190503880611000565b838b52858b20601f19841696959493889390928d5b8981106110c6575083601099106110ad575b505050811b019055611014565b015160001960f88460031b161c191690553880806110a0565b8282015184558a959093019291880191880161108e565b838b52858b20601f840160051c810191878510611119575b601f0160051c019087905b82811061110e575050610fe3565b8c8155018790611100565b90915081906110f5565b634e487b7160e01b8a5260418752878afd5b885162461bcd60e51b8152808801869052602e818a01527f45524337323155524953746f726167653a2055524920736574206f66206e6f6e60448201526d32bc34b9ba32b73a103a37b5b2b760911b6064820152608490fd5b634e487b7160e01b8e5260118b528b8efd5b895162461bcd60e51b81526020818a0152601c818b01527b115490cdcc8c4e881d1bdad95b88185b1c9958591e481b5a5b9d195960221b6044820152606490fd5b895162461bcd60e51b81526020818a01819052818b01527f4552433732313a206d696e7420746f20746865207a65726f20616464726573736044820152606490fd5b634e487b7160e01b8a5260118752878afd5b8383168852601160205260ff8789205416610ed157865162461bcd60e51b8152602081870152600f818801526e139bdd081dda1a5d195b1a5cdd1959608a1b6044820152606490fd5b600c546001810180911161122357600f5411610ec657875162461bcd60e51b81526020818801526019818901527813585e081d1bdad95b9cc8185b1c9958591e481b5a5b9d1959603a1b6044820152606490fd5b875162461bcd60e51b81526020818801526022818901527f4d617820746f6b656e7320666f72207573657220616c7265616479206d696e74604482015261195960f21b6064820152608490fd5b875162461bcd60e51b81526020818801526013818901527226b4b73a34b7339034b9903737ba1037b832b760691b6044820152606490fd5b875162461bcd60e51b81526020818801819052818901527f4e6f7420616c6c6f77656420746f2063616c6c207468652066756e6374696f6e6044820152606490fd5b8680fd5b50346102ae57816003193601126102ae576113b6611666565b602435916001600160a01b039081806113ce866118d1565b169316928084146114ac5780331490811561148d575b50156114245783865260205283852080546001600160a01b0319168317905561140c836118d1565b16925192600080516020611f8c8339815191528585a4f35b608490602086519162461bcd60e51b8352820152603e60248201527f4552433732313a20617070726f76652063616c6c6572206973206e6f7420746f60448201527f6b656e206f776e6572206e6f7220617070726f76656420666f7220616c6c00006064820152fd5b90508652600560205284862033875260205260ff8587205416386113e4565b855162461bcd60e51b8152602081840152602160248201527f4552433732313a20617070726f76616c20746f2063757272656e74206f776e656044820152603960f91b6064820152608490fd5b509134610879576020366003190112610879575061099760209235611931565b5050346102f357816003193601126102f35780519082805461153a816118f7565b808552906001908181169081156107d2575060011461156557505050610785826104a89403836116c8565b94508180526020948583205b82841061158d57505050826104a8946107859282010194610773565b8054868501880152928601928101611571565b925050346102ae5760203660031901126102ae573563ffffffff60e01b81168091036102ae576020925063780e9d6360e01b81149081156115e3575b5015158152f35b6380ac58cd60e01b811491508115611615575b8115611604575b50386115dc565b6301ffc9a760e01b149050386115fd565b635b5e139f60e01b811491506115f6565b919082519283825260005b848110611652575050826000602080949584010152601f8019910116010190565b602081830181015184830182015201611631565b600435906001600160a01b038216820361167c57565b600080fd5b602435906001600160a01b038216820361167c57565b602081019081106001600160401b038211176116b257604052565b634e487b7160e01b600052604160045260246000fd5b601f909101601f19168101906001600160401b038211908210176116b257604052565b6001600160401b0381116116b257601f01601f191660200190565b929192611712826116eb565b9161172060405193846116c8565b82948184528183011161167c578281602093846000960137010152565b606090600319011261167c576001600160a01b0390600435828116810361167c5791602435908116810361167c579060443590565b60085481101561178d57600860005260206000200190600090565b634e487b7160e01b600052603260045260246000fd5b805482101561178d5760005260206000200190600090565b600a546001600160a01b031633036117cf57565b606460405162461bcd60e51b815260206004820152602060248201527f4f776e61626c653a2063616c6c6572206973206e6f7420746865206f776e65726044820152fd5b6001600160a01b0316801561183357600052600360205260406000205490565b60405162461bcd60e51b815260206004820152602960248201527f4552433732313a2061646472657373207a65726f206973206e6f7420612076616044820152683634b21037bbb732b960b91b6064820152608490fd5b1561189157565b60405162461bcd60e51b8152602060048201526018602482015277115490cdcc8c4e881a5b9d985b1a59081d1bdad95b88125160421b6044820152606490fd5b6000908152600260205260409020546001600160a01b03166118f481151561188a565b90565b90600182811c92168015611927575b602083101461191157565b634e487b7160e01b600052602260045260246000fd5b91607f1691611906565b61193d61043b82611d44565b6000908152600460205260409020546001600160a01b031690565b919290926119668133611a46565b1561198557838361197e8361198397610fa797611ab4565b611e7d565b565b60405162461bcd60e51b815260206004820152602e6024820152600080516020611f2c83398151915260448201526d1c881b9bdc88185c1c1c9bdd995960921b6064820152608490fd5b60809060208152603260208201527f4552433732313a207472616e7366657220746f206e6f6e20455243373231526560408201527131b2b4bb32b91034b6b83632b6b2b73a32b960711b60608201520190565b15611a2957565b60405162461bcd60e51b815280611a42600482016119cf565b0390fd5b906001600160a01b038080611a5a846118d1565b16931691838314938415611a8d575b508315611a77575b50505090565b611a8391929350611931565b1614388080611a71565b909350600052600560205260406000208260005260205260ff604060002054169238611a69565b90611abe836118d1565b6001600160a01b038381169290918216839003611cf157818116938415611ca05783611bf45750600854856000526009602052604060002055611b0085611f08565b828403611bc1575b50600084815260046020526040812080546001600160a01b03199081169091559091611b33866118d1565b1690858360405193600080516020611f8c8339815191528286a48383526003602052604083208054600019810191908211611bad575584835260036020526040832080549060018201809211611bad5755858352600260205260408320805490911685179055600080516020611f6c8339815191529190a4565b634e487b7160e01b85526011600452602485fd5b611bca90611813565b60406000858152600660205281812083825260205286828220558681526007602052205538611b08565b848403611c02575b50611b00565b611c0b90611813565b6000198101908111611c8a576000908682526020906007825260409182842054828103611c53575b508884528383812055868452600681528284209184525281205538611bfc565b8785526006825283852083865282528385205488865260068352848620828752835280858720558552600782528385205538611c33565b634e487b7160e01b600052601160045260246000fd5b60405162461bcd60e51b8152602060048201526024808201527f4552433732313a207472616e7366657220746f20746865207a65726f206164646044820152637265737360e01b6064820152608490fd5b60405162461bcd60e51b815260206004820152602560248201527f4552433732313a207472616e736665722066726f6d20696e636f72726563742060448201526437bbb732b960d91b6064820152608490fd5b6000908152600260205260409020546001600160a01b0316151590565b9192600092909190803b15611e7357611daf946040518092630a85bd0160e11b9485835233600484015287602484015260448301526080606483015281878160209a8b966084830190611626565b03926001600160a01b03165af1849181611e33575b50611e22575050503d600014611e1a573d611dde816116eb565b90611dec60405192836116c8565b81528091833d92013e5b80519182611e175760405162461bcd60e51b815280611a42600482016119cf565b01fd5b506060611df6565b6001600160e01b0319161492509050565b9091508581813d8311611e6c575b611e4b81836116c8565b810103126106df57516001600160e01b0319811681036106df579038611dc4565b503d611e41565b5050915050600190565b9293600093909291803b15611efd57948491611ed79660405180948193630a85bd0160e11b9788845233600485015260018060a01b0380921660248501526044840152608060648401528260209b8c976084830190611626565b0393165af1849181611e335750611e22575050503d600014611e1a573d611dde816116eb565b505050915050600190565b60085490600160401b8210156116b257611042826001611983940160085561177256fe4552433732313a2063616c6c6572206973206e6f7420746f6b656e206f776e658be0079c531659141344cd1fd0a4f28419497f9722a3daafe3b4186f6b6457e0ddf252ad1be2c89b69c2b068fc378daa952ba7f163c4a11628f55a4df523b3ef8c5be1e5ebec7d5bd14f71427d1e84f3dd0314c0f7b2291e5b200ac8c7c3b925a2646970667358221220a1cc5baf7cf0b395c0d7777772ce9a1b9f1eee72c49b2a3d91fa0f002c6e125f64736f6c63430008100033",
  "linkReferences": {},
  "deployedLinkReferences": {}
}